:100000000C942A000C945B090C948E090C94C10981
:100010000C9447000C9447000C9447000C94470044
:100020000C9447000C9447000C94A4070C9471079F
:100030000C9447000C9447000C9447000C94470024
:100040000C9447000C9447000C9447000C94470014
:100050000C94470011241FBECFE5D8E0DEBFCDBF12
:1000600010E0A0E6B0E0E2E5FDE202C005900D92EE
:10007000AC38B107D9F710E0ACE8B0E001C01D9290
:10008000AC39B107E1F70E94D7150C94A7160C9470
:100090000000EF92FF920F931F937B018C0120E0F1
:1000A00030E040E05FE40E94F50388238CF0C80153
:1000B000B70120E030E040E05FE40E94C1010E940F
:1000C00055049B01AC01205030404040504806C0D0
:1000D000C801B7010E9455049B01AC01B901CA01D6
:1000E0001F910F91FF90EF900895A0E0B0E0EBE733
:1000F000F0E00C947016DC012B01FA019C91923017
:1001000008F439C1EB018881823008F433C194309E
:1001100069F4843009F02FC111969C91119789815F
:10012000981709F428C1A0E6B0E025C1843009F48D
:1001300021C18230A9F4923009F01DC19A01AD01AC
:1001400088E0EA010990AE01E90109929E0181501F
:10015000C1F7E201898111969C918923818308C1AD
:10016000923009F407C112962D903C901397EB0141
:100170008A819B811496AD90BD90CD90DC901797AD
:10018000EC80FD800E811F819101281B390BB90184
:1001900037FF04C066277727621B730B6032710537
:1001A0000CF061C0121613066CF537014801062EDB
:1001B00004C096948794779467940A94D2F721E0C8
:1001C00030E040E050E004C0220F331F441F551FB1
:1001D0006A95D2F721503040404050402E213F21B7
:1001E00040235123211531054105510521F021E01E
:1001F00030E040E050E079018A01E628F72808293C
:1002000019293CC0232BD1F1260E371E350146019A
:10021000062E04C096948794779467940A94D2F734
:1002200021E030E040E050E004C0220F331F441FC3
:10023000551F6A95D2F721503040404050402A2146
:100240003B214C215D21211531054105510521F04E
:1002500021E030E040E050E059016A01A628B728CB
:10026000C828D9280BC0821593052CF01C01AA249C
:10027000BB24650103C0EE24FF24870111969C91E5
:10028000D20111968C91981709F445C0992339F041
:10029000A80197012A193B094C095D0906C0A6016E
:1002A00095012E193F09400B510B57FD08C01182D3
:1002B0003382228224833583468357831DC081E0A5
:1002C00081833382228288279927DC01821B930B4A
:1002D000A40BB50B84839583A683B7830DC0220F2F
:1002E000331F441F551F24833583468357838281E0
:1002F000938101979383828324813581468157813D
:10030000DA01C9010197A109B1098F5F9F4FAF4F72
:10031000BF4328F30BC0918333822282EA0CFB1C7B
:100320000C1D1D1DE482F5820683178383E0808304
:10033000248135814681578157FF1AC0C901AA27F8
:1003400097FDA095BA2F81709070A070B0705695EF
:10035000479537952795822B932BA42BB52B848318
:100360009583A683B7838281938101969383828349
:10037000DF0101C0D201CD01CDB7DEB7E2E10C94BF
:100380008C16A0E2B0E0E7ECF1E00C947C166983F7
:100390007A838B839C832D833E834F835887E9E048
:1003A000EE2EF12CEC0EFD1ECE010196B7010E943F
:1003B0007E058E010F5E1F4FCE010596B8010E948B
:1003C0007E058A8991E089278A8BC701B801AE0131
:1003D000475E5F4F0E9475000E94A904A096E6E068
:1003E0000C949816A0E2B0E0E8EFF1E00C947C16D3
:1003F00069837A838B839C832D833E834F835887C5
:10040000F9E0EF2EF12CEC0EFD1ECE010196B701A6
:100410000E947E058E010F5E1F4FCE010596B8012A
:100420000E947E05C701B801AE01475E5F4F0E9482
:1004300075000E94A904A096E6E00C949816A0E22C
:10044000B0E0E5E2F2E00C94701669837A838B8366
:100450009C832D833E834F835887CE010196BE0136
:10046000675F7F4F0E947E05CE010596BE016F5EDD
:100470007F4F0E947E059985923088F0898982306D
:10048000C8F0943019F4823051F404C0843029F457
:10049000923081F480E690E0C6C0923049F420E0CA
:1004A0009A858A89981321E02A87CE010996BBC0D4
:1004B000823049F420E09A858A89981321E02A8BBA
:1004C000CE014196B0C02D843E844F8458886D88FB
:1004D0007E888F88988CEE24FF248701AA24BB2471
:1004E000650140E050E060E070E0E0E0F0E0C10174
:1004F00081709070892BE9F0E60CF71C081D191D1E
:100500009A01AB012A0D3B1D4C1D5D1D80E090E062
:10051000A0E0B0E0E614F7040805190520F481E036
:1005200090E0A0E0B0E0BA01A901480F591F6A1F8E
:100530007B1FAA0CBB1CCC1CDD1C97FE08C081E0F5
:1005400090E0A0E0B0E0A82AB92ACA2ADB2A3196B6
:10055000E032F10549F0660C771C881C991C569412
:10056000479437942794C3CFFA85EA892B893C892D
:100570008B859C85280F391F2E5F3F4F17C0CA01FE
:1005800081709070892B61F016950795F794E79428
:1005900080E090E0A0E0B0E8E82AF92A0A2B1B2BC3
:1005A00076956795579547952F5F3F4F77FDE7CF36
:1005B0000CC0440F551F661F771F17FD4160EE0CDE
:1005C000FF1C001F111F21503040403090E05907A0
:1005D00090E0690790E4790760F32B8F3C8FDB0193
:1005E000CA018F779070A070B07080349105A1051A
:1005F000B10561F447FD0AC0E114F10401051105DC
:1006000029F0405C5F4F6F4F7F4F40781A8EFE1786
:1006100011F081E08A8F4D8F5E8F6F8F78A383E01A
:10062000898FCE0149960E94A904A096E2E10C941C
:100630008C16A8E1B0E0EFE1F3E00C947816698342
:100640007A838B839C832D833E834F835887B9E0C5
:10065000EB2EF12CEC0EFD1ECE010196B7010E948F
:100660007E058E010F5E1F4FCE010596B8010E94D8
:100670007E052985223008F47EC03989323010F495
:10068000B8017CC08A859A8989278A87243011F02D
:10069000223031F4231709F06EC060E670E06EC0BE
:1006A000343039F41D861E861F86188A1C861B86E8
:1006B00004C0323021F484E08987B7015FC02B8504
:1006C0003C858B899C89281B390B3C872B87ED84C3
:1006D000FE840F851889AD88BE88CF88D88CEA142F
:1006E000FB040C051D0540F4EE0CFF1C001F111F40
:1006F000215030403C872B8720E030E040E050E044
:1007000080E090E0A0E0B0E460E070E0EA14FB0478
:100710000C051D0540F0282B392B4A2B5B2BEA18C2
:10072000FB080C091D09B695A79597958795EE0CC2
:10073000FF1C001F111F6F5F7F4F6F31710531F775
:10074000DA01C9018F779070A070B0708034910584
:10075000A105B10561F427FD0AC0E114F10401050A
:10076000110529F0205C3F4F4F4F5F4F20782D87B8
:100770003E874F87588BBE01675F7F4FCB010E943A
:10078000A9046896EAE00C949416A8E1B0E0EBECBA
:10079000F3E00C947C1669837A838B839C832D838E
:1007A0003E834F83588789E0E82EF12CEC0EFD1E26
:1007B000CE010196B7010E947E058E010F5E1F4F8C
:1007C000CE010596B8010E947E058985823040F0F1
:1007D0008989823028F0C701B8010E94F60501C05E
:1007E0008FEF6896E6E00C949816A8E1B0E0EBEF86
:1007F000F3E00C947C1669837A838B839C832D832E
:100800003E834F83588789E0E82EF12CEC0EFD1EC5
:10081000CE010196B7010E947E058E010F5E1F4F2B
:10082000CE010596B8010E947E058985823040F090
:100830008989823028F0C701B8010E94F60501C0FD
:100840008FEF6896E6E00C949816A8E1B0E0EBE232
:10085000F4E00C947C1669837A838B839C832D83CC
:100860003E834F83588789E0E82EF12CEC0EFD1E65
:10087000CE010196B7010E947E058E010F5E1F4FCB
:10088000CE010596B8010E947E058985823040F030
:100890008989823028F0C701B8010E94F60501C09D
:1008A00081E06896E6E00C949816ACE0B0E0EBE5E9
:1008B000F4E00C94801669837A838B839C83CE0149
:1008C0000196BE016B5F7F4F0E947E058D81823055
:1008D00061F1823050F1843021F48E81882351F10E
:1008E0002EC02F81388537FD20C06E812F31310514
:1008F0001CF06623F9F023C08EE190E0821B930B7D
:1009000029853A854B855C8504C056954795379572
:1009100027958A95D2F76623B1F05095409530958A
:1009200021953F4F4F4F5F4F0EC020E030E040E039
:1009300050E009C02FEF3FEF4FEF5FE704C020E02A
:1009400030E040E050E8B901CA012C96E2E00C9496
:100950009C16DF92EF92FF920F931F93FC01E480AD
:10096000F58006811781D1808081823048F480E053
:1009700090E0A0E1B0E0E82AF92A0A2B1B2BA5C0E1
:10098000843009F49FC0823021F4EE24FF248701D3
:1009900005C0E114F1040105110519F4E0E0F0E0EF
:1009A00096C0628173819FEF623879070CF05BC05B
:1009B00022E83FEF261B370B2A3131052CF020E0CF
:1009C00030E040E050E02AC0B801A701022E04C088
:1009D00076956795579547950A94D2F781E090E010
:1009E000A0E0B0E004C0880F991FAA1FBB1F2A9582
:1009F000D2F70197A109B1098E219F21A023B1232C
:100A00000097A105B10521F081E090E0A0E0B0E001
:100A10009A01AB01282B392B4A2B5B2BDA01C90138
:100A20008F779070A070B07080349105A105B105EA
:100A300039F427FF09C0205C3F4F4F4F5F4F04C080
:100A4000215C3F4F4F4F5F4FE0E0F0E02030A0E0EF
:100A50003A07A0E04A07A0E45A0710F0E1E0F0E00E
:100A600079018A0127C06038710564F5FB01E158FE
:100A7000FF4FD801C7018F779070A070B07080349D
:100A80009105A105B10539F4E7FE0DC080E490E0C1
:100A9000A0E0B0E004C08FE390E0A0E0B0E0E80E9A
:100AA000F91E0A1F1B1F17FF05C016950795F7941F
:100AB000E794319687E016950795F794E7948A9521
:100AC000D1F705C0EE24FF248701EFEFF0E06E2F91
:100AD000679566276795902F9F77D794DD24D794E5
:100AE0008E2F8695492F462B582F5D29B701CA01B5
:100AF0001F910F91FF90EF90DF900895FC01DB01B3
:100B0000408151812281622F6F7770E0221F22275E
:100B1000221F9381892F880F822B282F30E0991F65
:100B20009927991F11969C93119721153105A9F5C5
:100B3000411551056105710511F482E037C082E865
:100B40009FEF13969C938E9312979A01AB0167E0E7
:100B5000220F331F441F551F6A95D1F783E08C93F2
:100B60000DC0220F331F441F551F12968D919C916B
:100B70001397019713969C938E931297203080E0E1
:100B8000380780E0480780E4580758F314962D93FF
:100B90003D934D935C93179708952F3F310579F45A
:100BA000411551056105710519F484E08C93089590
:100BB00064FF03C081E08C9312C01C9210C02F57B9
:100BC000304013963C932E93129783E08C9387E0EA
:100BD000440F551F661F771F8A95D1F770641496CE
:100BE0004D935D936D937C93179708951F93DC014C
:100BF000FB019C91923008F447C08081823008F458
:100C000043C0943051F411961C91843099F5818140
:100C1000682F70E0611B71093FC0843021F0923071
:100C200031F48230B9F18181882389F12DC0119688
:100C30001C9111978230F1F081811817D9F4129626
:100C40002D913C911397828193818217930794F0A1
:100C500028173907BCF014968D919D910D90BC9189
:100C6000A02D2481358146815781281739074A07ED
:100C70005B0718F4112341F00AC082179307A407F9
:100C8000B50740F4112319F061E070E005C06FEF83
:100C90007FEF02C060E070E0CB011F910895DF9309
:100CA000CF93CDB7DEB7A3E5B0E0E3E5F0E0808118
:100CB0008F7B8C93A3E5B0E0E3E5F0E08081877F54
:100CC0008C93CF91DF910895DF93CF930F92CDB79F
:100CD000DEB78983E2E5F0E0898180830F90CF91D0
:100CE000DF910895DF93CF930F92CDB7DEB789835D
:100CF000A3E5B0E0E3E5F0E08081887F8C93A3E595
:100D0000B0E0E3E5F0E090818981892B8C930F902E
:100D1000CF91DF910895DF93CF930F92CDB7DEB7D8
:100D200089838981813041F4A9E5B0E0E9E5F0E00B
:100D3000808181608C9307C0A9E5B0E0E9E5F0E02F
:100D400080818E7F8C930F90CF91DF910895DF93F8
:100D5000CF9300D000D0CDB7DEB789836A838A8174
:100D6000282F30E03C832B838B819C81823091053E
:100D7000C9F02B813C812330310519F18B819C8195
:100D80008130910569F5A3E5B0E0E3E5F0E080810D
:100D900080618C93A3E5B0E0E3E5F0E080818F7D96
:100DA0008C932CC0A3E5B0E0E3E5F0E080818F7E7A
:100DB0008C93A3E5B0E0E3E5F0E0808180628C9362
:100DC0001DC0A3E5B0E0E3E5F0E0808180618C9395
:100DD000A3E5B0E0E3E5F0E0808180628C930EC093
:100DE000A3E5B0E0E3E5F0E080818F7E8C93A3E59E
:100DF000B0E0E3E5F0E080818F7D8C93ECE5F0E0FE
:100E0000898180830F900F900F900F90CF91DF9189
:100E10000895DF93CF930F92CDB7DEB78983ECE5CA
:100E2000F0E0898180830F90CF91DF910895DF9367
:100E3000CF930F92CDB7DEB789838981813041F49A
:100E4000A9E5B0E0E9E5F0E0808182608C9307C01D
:100E5000A9E5B0E0E9E5F0E080818D7F8C930F900B
:100E6000CF91DF910895DF93CF93CDB7DEB7A3E5A0
:100E7000B0E0E3E5F0E08081887F8C93CF91DF9153
:100E80000895DF93CF9300D0CDB7DEB79A838983DF
:100E900089819A8190938D0080938C000F900F90A0
:100EA000CF91DF910895DF93CF9300D0CDB7DEB718
:100EB0009A83898389819A8190938F0080938E0091
:100EC0000F900F90CF91DF910895DF93CF9300D0D3
:100ED000CDB7DEB789836A830F900F90CF91DF91F2
:100EE00008951F920F920FB60F9211242F933F93E4
:100EF0004F935F936F937F938F939F93AF93BF9322
:100F0000EF93FF93DF93CF93CDB7DEB780918C0043
:100F100090918D00009729F0E0918C00F0918D0068
:100F20000995CF91DF91FF91EF91BF91AF919F9183
:100F30008F917F916F915F914F913F912F910F9082
:100F40000FBE0F901F9018951F920F920FB60F9221
:100F500011242F933F934F935F936F937F938F93BE
:100F60009F93AF93BF93EF93FF93DF93CF93CDB74F
:100F7000DEB780918E0090918F00009729F0E0916C
:100F80008E00F0918F000995CF91DF91FF91EF9145
:100F9000BF91AF919F918F917F916F915F914F9191
:100FA0003F912F910F900FBE0F901F901895DF93D8
:100FB000CF93CDB7DEB72A970FB6F894DEBF0FBE3A
:100FC000CDBF89836A838981282F30E03A872987BA
:100FD00089859A858130910509F46DC029853A8506
:100FE0002230310509F4C9C089859A85009709F036
:100FF000E9C08A81282F30E038872F838F81988538
:101000008130910521F12F813885223031052CF472
:101010008F819885009761F046C02F8138852230F6
:10102000310521F18F8198858330910571F13BC0A5
:10103000A5E5B0E0E5E5F0E080818E7F8C93A5E545
:10104000B0E0E5E5F0E0808182608C932CC0A5E5FE
:10105000B0E0E5E5F0E0808181608C93A5E5B0E04B
:10106000E5E5F0E0808182608C931DC0A5E5B0E0ED
:10107000E5E5F0E0808181608C93A5E5B0E0E5E5F1
:10108000F0E080818D7F8C930EC0A5E5B0E0E5E5B2
:10109000F0E080818E7F8C93A5E5B0E0E5E5F0E09F
:1010A00080818D7F8C93ABE5B0E0EBE5F0E0808153
:1010B00080648C9387C08A81282F30E03E832D8303
:1010C0008D819E818130910521F12D813E812230DB
:1010D00031052CF48D819E81009761F046C02D81F1
:1010E0003E812230310521F18D819E818330910531
:1010F00071F13BC0A5E5B0E0E5E5F0E080818B7FD4
:101100008C93A5E5B0E0E5E5F0E0808188608C9304
:101110002CC0A5E5B0E0E5E5F0E0808184608C932B
:10112000A5E5B0E0E5E5F0E0808188608C931DC026
:10113000A5E5B0E0E5E5F0E0808184608C93A5E56D
:10114000B0E0E5E5F0E08081877F8C930EC0A5E5F7
:10115000B0E0E5E5F0E080818B7F8C93A5E5B0E021
:10116000E5E5F0E08081877F8C93ABE5B0E0EBE5CF
:10117000F0E0808180688C9325C08A81282F30E040
:101180003C832B838B819C81009731F02B813C81A8
:101190002130310549F00FC0A4E5B0E0E4E5F0E00E
:1011A00080818F7B8C9307C0A4E5B0E0E4E5F0E09C
:1011B000808180648C93ABE5B0E0EBE5F0E080816A
:1011C00080628C932A960FB6F894DEBF0FBECDBF17
:1011D000CF91DF910895DF93CF9300D00F92CDB7D9
:1011E000DEB789838981282F30E03B832A838A8177
:1011F0009B818130910589F02A813B812230310524
:10120000A1F08A819B810097B9F4ABE5B0E0EBE5F2
:10121000F0E080818F7B8C930FC0ABE5B0E0EBE515
:10122000F0E080818F778C9307C0ABE5B0E0EBE511
:10123000F0E080818F7D8C930F900F900F90CF9175
:10124000DF910895DF93CF9300D000D00F92CDB7F8
:10125000DEB789837B836A838981282F30E03D83D1
:101260002C838C819D818130910581F02C813D8181
:101270002230310591F08C819D810097A1F48A8103
:101280009B8190939100809390000DC08A819B81F7
:10129000909393008093920006C08A819B819093E3
:1012A0009500809394000F900F900F900F900F90E7
:1012B000CF91DF9108951F920F920FB60F921124D4
:1012C0002F933F934F935F936F937F938F939F934E
:1012D000AF93BF93EF93FF93DF93CF93CDB7DEB779
:1012E0008091900090919100009729F0E0919000FA
:1012F000F09191000995CF91DF91FF91EF91BF910E
:10130000AF919F918F917F916F915F914F913F919D
:101310002F910F900FBE0F901F9018951F920F9254
:101320000FB60F9211242F933F934F935F936F93B8
:101330007F938F939F93AF93BF93EF93FF93DF932D
:10134000CF93CDB7DEB78091920090919300009734
:1013500029F0E0919200F09193000995CF91DF91EF
:10136000FF91EF91BF91AF919F918F917F916F917D
:101370005F914F913F912F910F900FBE0F901F9053
:1013800018951F920F920FB60F9211242F933F932F
:101390004F935F936F937F938F939F93AF93BF937D
:1013A000EF93FF93DF93CF93CDB7DEB78091940097
:1013B00090919500009729F0E0919400F0919500AC
:1013C0000995CF91DF91FF91EF91BF91AF919F91DF
:1013D0008F917F916F915F914F913F912F910F90DE
:1013E0000FBE0F901F901895DF93CF93CDB7DEB748
:1013F00029970FB6F894DEBF0FBECDBF89836A83ED
:101400004B838A81883008F0ACC18B81813009F030
:101410006FC08981282F30E0398728878885998592
:101420008130910549F128853985223031052CF428
:1014300088859985009761F094C128853985223087
:10144000310571F18885998583309105E9F189C16C
:10145000AAE3B0E0EAE3F0E08081482F8A81282FF8
:1014600030E081E090E0022E02C0880F991F0A94BC
:10147000E2F7842B8C9375C1A7E3B0E0E7E3F0E0DB
:101480008081482F8A81282F30E081E090E0022E71
:1014900002C0880F991F0A94E2F7842B8C9361C1D4
:1014A000A4E3B0E0E4E3F0E08081482F8A81282FB4
:1014B00030E081E090E0022E02C0880F991F0A946C
:1014C000E2F7842B8C934DC1A1E3B0E0E1E3F0E0BF
:1014D0008081482F8A81282F30E081E090E0022E21
:1014E00002C0880F991F0A94E2F7842B8C9339C1AC
:1014F0008B81882309F074C08981282F30E03F83D5
:101500002E838E819F818130910559F12E813F81FB
:10151000223031052CF48E819F81009769F021C122
:101520002E813F812230310589F18E819F81833068
:10153000910509F440C015C1AAE3B0E0EAE3F0E088
:101540008081482F8A81282F30E081E090E0022EB0
:1015500002C0880F991F0A94E2F7809584238C9328
:1015600000C1A7E3B0E0E7E3F0E08081482F8A8183
:10157000282F30E081E090E0022E02C0880F991FF2
:101580000A94E2F7809584238C93EBC0A4E3B0E047
:10159000E4E3F0E08081482F8A81282F30E081E069
:1015A00090E0022E02C0880F991F0A94E2F78095FE
:1015B00084238C93D6C0A1E3B0E0E1E3F0E0808126
:1015C000482F8A81282F30E081E090E0022E02C06F
:1015D000880F991F0A94E2F7809584238C93C1C0E9
:1015E0008B81823009F0BDC08981282F30E03D8396
:1015F0002C838C819D818130910509F43EC02C8122
:101600003D81223031052CF48C819D81009771F051
:10161000A8C02C813D812230310509F455C08C8150
:101620009D818330910509F476C09BC0AAE3B0E0A8
:10163000EAE3F0E08081482F8A81282F30E081E0C2
:1016400090E002C0880F991F2A95E2F780958423C5
:101650008C93ABE3B0E0EBE3F0E08081482F8A812C
:10166000282F30E081E090E0022E02C0880F991F01
:101670000A94E2F7842B8C9374C0A7E3B0E0E7E30D
:10168000F0E08081482F8A81282F30E081E090E0CF
:1016900002C0880F991F2A95E2F7809584238C93C6
:1016A000A8E3B0E0E8E3F0E08081482F8A81282FAA
:1016B00030E081E090E0022E02C0880F991F0A946A
:1016C000E2F7842B8C934DC0A4E3B0E0E4E3F0E0B8
:1016D0008081482F8A81282F30E081E090E002C08D
:1016E000880F991F2A95E2F7809584238C93A5E3B0
:1016F000B0E0E5E3F0E08081482F8A81282F30E0D8
:1017000081E090E0022E02C0880F991F0A94E2F750
:10171000842B8C9326C0A1E3B0E0E1E3F0E080816C
:10172000482F8A81282F30E081E090E002C0880FA6
:10173000991F2A95E2F7809584238C93A2E3B0E069
:10174000E2E3F0E08081482F8A81282F30E081E0B9
:1017500090E0022E02C0880F991F0A94E2F7842BB2
:101760008C9329960FB6F894DEBF0FBECDBFCF91F4
:10177000DF910895DF93CF93CDB7DEB727970FB6EC
:10178000F894DEBF0FBECDBF89836A834B838A8105
:10179000883008F0EAC08B81813009F06FC0898100
:1017A000282F30E03F832E838E819F8181309105E9
:1017B00049F12E813F81223031052CF48E819F81A9
:1017C000009761F0D2C02E813F812230310571F146
:1017D0008E819F8183309105E9F1C7C0ABE3B0E012
:1017E000EBE3F0E08081482F8A81282F30E081E010
:1017F00090E0022E02C0880F991F0A94E2F7842B12
:101800008C93B3C0A8E3B0E0E8E3F0E08081482F18
:101810008A81282F30E081E090E0022E02C0880FFC
:10182000991F0A94E2F7842B8C939FC0A5E3B0E044
:10183000E5E3F0E08081482F8A81282F30E081E0C5
:1018400090E0022E02C0880F991F0A94E2F7842BC1
:101850008C938BC0A2E3B0E0E2E3F0E08081482FFC
:101860008A81282F30E081E090E0022E02C0880FAC
:10187000991F0A94E2F7842B8C9377C08B8188237D
:1018800009F073C08981282F30E03D832C838C813F
:101890009D818130910559F12C813D8122303105A6
:1018A0002CF48C819D81009769F05FC02C813D8173
:1018B0002230310589F18C819D818330910509F4B5
:1018C00040C053C0ABE3B0E0EBE3F0E08081482FD1
:1018D0008A81282F30E081E090E0022E02C0880F3C
:1018E000991F0A94E2F7809584238C933EC0A8E365
:1018F000B0E0E8E3F0E08081482F8A81282F30E0D3
:1019000081E090E0022E02C0880F991F0A94E2F74E
:10191000809584238C9329C0A5E3B0E0E5E3F0E053
:101920008081482F8A81282F30E081E090E0022ECC
:1019300002C0880F991F0A94E2F7809584238C9344
:1019400014C0A2E3B0E0E2E3F0E08081482F8A8196
:10195000282F30E081E090E0022E02C0880F991F0E
:101960000A94E2F7809584238C9327960FB6F89417
:10197000DEBF0FBECDBFCF91DF910895DF93CF9330
:1019800000D000D0CDB7DEB789836A838A818830E2
:1019900008F06EC08981282F30E03C832B838B8137
:1019A0009C818130910549F12B813C8122303105A8
:1019B0002CF48B819C81009761F05AC02B813C8173
:1019C0002230310571F18B819C8183309105E9F1E1
:1019D0004FC0ABE3B0E0EBE3F0E08081482F8A81B9
:1019E000282F30E081E090E0022E02C0880F991F7E
:1019F0000A94E2F784278C933BC0A8E3B0E0E8E3C5
:101A0000F0E08081482F8A81282F30E081E090E04B
:101A1000022E02C0880F991F0A94E2F784278C9344
:101A200027C0A5E3B0E0E5E3F0E08081482F8A819C
:101A3000282F30E081E090E0022E02C0880F991F2D
:101A40000A94E2F784278C9313C0A2E3B0E0E2E3A8
:101A5000F0E08081482F8A81282F30E081E090E0FB
:101A6000022E02C0880F991F0A94E2F784278C93F4
:101A70000F900F900F900F90CF91DF910895DF930B
:101A8000CF9300D000D000D0CDB7DEB789836A8372
:101A90008A81883008F06FC08981282F30E03D832B
:101AA0002C834C815D814130510549F18C819D81B0
:101AB0008230910534F42C813D812115310561F08E
:101AC00057C04C815D814230510561F18C819D810F
:101AD00083309105D1F14CC0E9E3F0E08081282FFB
:101AE00030E08A81882F90E0A90102C05595479582
:101AF0008A95E2F7CA01582F51705B833DC0E6E337
:101B0000F0E08081282F30E08A81882F90E0A901C1
:101B100002C0559547958A95E2F7CA01582F517032
:101B20005B832AC0E3E3F0E08081282F30E08A81E4
:101B3000882F90E0A90102C0559547958A95E2F754
:101B4000CA01582F51705B8317C0E0E3F0E0808139
:101B5000282F30E08A81882F90E0A90102C0559596
:101B600047958A95E2F7CA01582F51705B8304C0EC
:101B70008FEF8B8301C002C09B819E838E8126964E
:101B80000FB6F894DEBF0FBECDBFCF91DF910895A1
:101B9000DF93CF9300D000D0CDB7DEB789836A83BF
:101BA0008981282F30E03C832B838B819C8181307D
:101BB0009105D1F02B813C81223031052CF48B81B1
:101BC0009C81009761F01EC02B813C812230310541
:101BD00081F08B819C818330910581F013C0EAE311
:101BE000F0E08A8180830EC0E7E3F0E08A818083A1
:101BF00009C0E4E3F0E08A81808304C0E1E3F0E01F
:101C00008A8180830F900F900F900F90CF91DF917A
:101C10000895DF93CF9300D000D0CDB7DEB789838E
:101C20006A838981282F30E03C832B838B819C81C0
:101C300081309105D1F02B813C81223031052CF48B
:101C40008B819C81009761F01EC02B813C812230EA
:101C5000310581F08B819C818330910581F013C027
:101C6000EBE3F0E08A8180830EC0E8E3F0E08A8154
:101C7000808309C0E5E3F0E08A81808304C0E2E369
:101C8000F0E08A8180830F900F900F900F90CF919A
:101C9000DF910895DF93CF930F92CDB7DEB789839D
:101CA000A6E2B0E0E6E2F0E0808180688C93A6E2F4
:101CB000B0E0E6E2F0E090818981886F89238C931F
:101CC000A7E2B0E0E7E2F0E0808180648C93A7E2D5
:101CD000B0E0E7E2F0E080818F778C93A7E2B0E09C
:101CE000E7E2F0E080818F7D8C930F90CF91DF91C0
:101CF0000895DF93CF9300D0CDB7DEB78983A7E2F5
:101D0000B0E0E7E2F0E08081807E8C93A7E2B0E073
:101D1000E7E2F0E090818981892B8C93A6E2B0E024
:101D2000E6E2F0E0808180648C93E6E2F0E080817E
:101D3000A6E2B0E0E6E2F0E080818F7E8C93E4E200
:101D4000F0E0808191810F900F90CF91DF91089505
:101D5000DF93CF93CDB7DEB7A6E2B0E0E6E2F0E0E6
:101D600080818F778C93CF91DF910895DF93CF930C
:101D70000F92CDB7DEB7898389816FEF0E94C80DBE
:101D80000F90CF91DF910895DF93CF9300D0CDB71F
:101D9000DEB789836A8389816FEF0E94C80D8A81CB
:101DA0006FEF0E94C80D0F900F90CF91DF910895B3
:101DB000DF93CF9300D0CDB7DEB789836A838A8162
:101DC000882F90E0FC01E859FF4F90818981692FAD
:101DD0000E94090E0F900F90CF91DF910895DF932D
:101DE000CF9300D00F92CDB7DEB789836A834B8340
:101DF0008B819AE0692F0E944216892F882F90E0EC
:101E0000FC01E859FF4F90818981692F0E94090EDA
:101E10008B819AE0692F0E944216882F90E0FC0186
:101E2000E859FF4F90818A81692F0E94090E0F9017
:101E30000F900F90CF91DF9108950F931F93DF9331
:101E4000CF93CDB7DEB7CC54D0400FB6F894DEBFF9
:101E50000FBECDBF82E06FEF0E94C80D83E067E048
:101E600041E00E94F40983E066E041E00E94F40949
:101E700083E065E041E00E94F409FE01E75BFF4F6B
:101E800080E090E0ACE0B2E480839183A283B383EE
:101E90008E010B5B1F4FFE01E75BFF4F608171817D
:101EA0008281938120E030E04AEF54E40E941F02D7
:101EB000DC01CB01F80180839183A283B383FE010F
:101EC000EB5BFF4F608171818281938120E030E084
:101ED00040E85FE30E942504882344F4FE01ED5BA3
:101EE000FF4F81E090E09183808364C0FE01EB5B53
:101EF000FF4F608171818281938120E03FEF4FE746
:101F000057E40E94C50318160CF043C0FE01E75BBE
:101F1000FF4F608171818281938120E030E040E257
:101F200051E40E941F02DC01CB018E010D5B1F4FAB
:101F3000BC01CD010E944900DC01CB01F801918375
:101F400080831FC0FE01EF5BFF4F88EC90E0918320
:101F50008083FE01EF5BFF4F808191810197F1F754
:101F6000FE01EF5BFF4F91838083DE01AD5BBF4FCE
:101F7000FE01ED5BFF4F80819181019711969C934B
:101F80008E93FE01ED5BFF4F808191810097D1F62A
:101F900024C08E010D5B1F4FFE01EB5BFF4F608184
:101FA0007181828193810E944900DC01CB01F8019B
:101FB00091838083FE01ED5BFF4F80819181FE0163
:101FC000FF9691838083FE01FF9680819181019726
:101FD000F1F7FE01FF969183808388E30E94F01160
:101FE00080E090E0A8E4B2E48BAF9CAFADAFBEAFB1
:101FF0006BAD7CAD8DAD9EAD2BEA3AEA4AE250E482
:102000000E941F02DC01CB018FAB98AFA9AFBAAF22
:102010006FA978AD89AD9AAD20E030E040E85FE38C
:102020000E94250488231CF481E08EAB91C06FA927
:1020300078AD89AD9AAD20E030E04FE753E40E94DF
:10204000C50318160CF07BC06BAD7CAD8DAD9EAD9D
:1020500020E030E04AE754E40E941903DC01CB01A0
:102060008AAB9BABACABBDAB6AA97BA98CA99DA984
:1020700020E030E04AEF54E40E941F02DC01CB0173
:102080008EA79FA7A8ABB9AB6EA57FA588A999A974
:1020900020E030E040E85FE30E94250488232CF430
:1020A00081E090E09DA78CA73FC06EA57FA588A981
:1020B00099A920E03FEF4FE757E40E94C5031816A7
:1020C0004CF56AA97BA98CA99DA920E030E040E2EB
:1020D00051E40E941F02DC01CB01BC01CD010E9432
:1020E0004900DC01CB019DA78CA70FC088EC90E0D4
:1020F0009BA78AA78AA59BA50197F1F79BA78AA70B
:102100008CA59DA501979DA78CA78CA59DA5009743
:1021100069F724C06EA57FA588A999A90E944900E6
:10212000DC01CB019DA78CA78CA59DA599A788A7AD
:1021300088A599A50197F1F799A788A70FC06FA95E
:1021400078AD89AD9AAD0E944900DC01CB018EAB20
:102150008EA98FA38FA18A95F1F78FA38FE00E949C
:10216000F01180E090E0A8E4B2E48BA39CA3ADA3BF
:10217000BEA36BA17CA18DA19EA12BEA3AEA4AE203
:1021800050E40E941F02DC01CB018F8F98A3A9A30A
:10219000BAA36F8D78A189A19AA120E030E040E830
:1021A0005FE30E94250488231CF481E08E8F91C098
:1021B0006F8D78A189A19AA120E030E04FE753E428
:1021C0000E94C50318160CF07BC06BA17CA18DA1E9
:1021D0009EA120E030E04AE754E40E941903DC01AC
:1021E000CB018A8F9B8FAC8FBD8F6A8D7B8D8C8D41
:1021F0009D8D20E030E04AEF54E40E941F02DC0194
:10220000CB018E8B9F8BA88FB98F6E897F89888D2C
:10221000998D20E030E040E85FE30E9425048823A8
:102220002CF481E090E09D8B8C8B3FC06E897F8980
:10223000888D998D20E03FEF4FE757E40E94C5035A
:1022400018164CF56A8D7B8D8C8D9D8D20E030E0CD
:1022500040E251E40E941F02DC01CB01BC01CD0130
:102260000E944900DC01CB019D8B8C8B0FC088EC58
:1022700090E09B8B8A8B8A899B890197F1F79B8BD6
:102280008A8B8C899D8901979D8B8C8B8C899D89EC
:10229000009769F724C06E897F89888D998D0E9487
:1022A0004900DC01CB019D8B8C8B8C899D89998B9E
:1022B000888B888999890197F1F7998B888B0FC052
:1022C0006F8D78A189A19AA10E944900DC01CB0100
:1022D0008E8F8E8D8F878F858A95F1F78F8781E01E
:1022E0000E94F01180E090E0A0E0B0E48B879C8732
:1022F000AD87BE876B857C858D859E8520E030E02F
:102300004AEF54E40E941F02DC01CB018F839887BF
:10231000A987BA876F81788589859A8520E030E022
:1023200040E85FE30E94250488232CF481E090E0DC
:102330009E838D833FC06F81788589859A8520E053
:102340003FEF4FE757E40E94C50318164CF56B8525
:102350007C858D859E8520E030E040E251E40E943E
:102360001F02DC01CB01BC01CD010E944900DC0150
:10237000CB019E838D830FC088EC90E09C838B8380
:102380008B819C810197F1F79C838B838D819E814A
:1023900001979E838D838D819E81009769F714C07C
:1023A0006F81788589859A850E944900DC01CB017F
:1023B0009E838D838D819E819A83898389819A8171
:1023C0000197F1F79A838983C45BDF4F0FB6F894C6
:1023D000DEBF0FBECDBFCF91DF911F910F9108954A
:1023E000DF93CF93CDB7DEB769970FB6F894DEBF12
:1023F0000FBECDBF898F83E067E040E00E94BA0B3B
:1024000083E066E040E00E94BA0B82E0698D0E94A2
:10241000090E83E065E041E00E94BA0B80E090E0A5
:10242000A0E8BFE38D8B9E8BAF8BB88F6D897E89C3
:102430008F89988D2BEA3AEA4AE250E40E941F0203
:10244000DC01CB01898B9A8BAB8BBC8B69897A8938
:102450008B899C8920E030E040E85FE30E942504FE
:1024600088231CF481E0888B91C069897A898B89E3
:102470009C8920E030E04FE753E40E94C503181622
:102480000CF07BC06D897E898F89988D20E030E0CB
:102490004AE754E40E941903DC01CB018C879D8735
:1024A000AE87BF876C857D858E859F8520E030E077
:1024B0004AEF54E40E941F02DC01CB018887998710
:1024C000AA87BB87688579858A859B8520E030E06F
:1024D00040E85FE30E94250488232CF481E090E02B
:1024E0009F838E833FC0688579858A859B8520E0A0
:1024F0003FEF4FE757E40E94C50318164CF56C8573
:102500007D858E859F8520E030E040E251E40E9489
:102510001F02DC01CB01BC01CD010E944900DC019E
:10252000CB019F838E830FC088EC90E09D838C83CA
:102530008C819D810197F1F79D838C838E819F8192
:1025400001979F838E838E819F81009769F724C0B6
:10255000688579858A859B850E944900DC01CB01CD
:102560009F838E838E819F819B838A838A819B81B7
:102570000197F1F79B838A830FC069897A898B89D8
:102580009C890E944900DC01CB01888B8889898362
:1025900089818A95F1F7898383E065E040E00E94B4
:1025A000BA0B69960FB6F894DEBF0FBECDBFCF91C0
:1025B000DF910895DF93CF93CDB7DEB769970FB65C
:1025C000F894DEBF0FBECDBF898F83E067E041E0A6
:1025D0000E94BA0B83E066E040E00E94BA0B82E002
:1025E000698D0E94090E83E065E041E00E94BA0B0C
:1025F00080E090E0A0E8BFE38D8B9E8BAF8BB88F1F
:102600006D897E898F89988D2BEA3AEA4AE250E4F7
:102610000E941F02DC01CB01898B9A8BAB8BBC8B98
:1026200069897A898B899C8920E030E040E85FE302
:102630000E94250488231CF481E0888B91C069895D
:102640007A898B899C8920E030E04FE753E40E942F
:10265000C50318160CF07BC06D897E898F89988D13
:1026600020E030E04AE754E40E941903DC01CB018A
:102670008C879D87AE87BF876C857D858E859F857E
:1026800020E030E04AEF54E40E941F02DC01CB015D
:1026900088879987AA87BB87688579858A859B857E
:1026A00020E030E040E85FE30E94250488232CF41A
:1026B00081E090E09F838E833FC0688579858A851D
:1026C0009B8520E03FEF4FE757E40E94C5031816B3
:1026D0004CF56C857D858E859F8520E030E040E25D
:1026E00051E40E941F02DC01CB01BC01CD010E941C
:1026F0004900DC01CB019F838E830FC088EC90E002
:102700009D838C838C819D810197F1F79D838C83C0
:102710008E819F8101979F838E838E819F810097F9
:1027200069F724C0688579858A859B850E94490060
:10273000DC01CB019F838E838E819F819B838A8363
:102740008A819B810197F1F79B838A830FC06989F6
:102750007A898B899C890E944900DC01CB01888B96
:102760008889898389818A95F1F7898383E065E087
:1027700040E00E94BA0B69960FB6F894DEBF0FBE18
:10278000CDBFCF91DF910895DF93CF9300D0CDB728
:10279000DEB79A8389830AC0E981FA8180810E9429
:1027A000DA1289819A8101969A838983E981FA8173
:1027B0008081882389F70F900F90CF91DF91089542
:1027C000DF93CF93CDB7DEB765970FB6F894DEBF32
:1027D0000FBECDBF6A8B7B8B8C8B9D8B1D828A89B4
:1027E0009B89AC89BD8989839A83AB83BC8315C0DF
:1027F0008D818F5F8D8389819A81AB81BC812AE035
:1028000030E040E050E0BC01CD010E944E16DA01FC
:10281000C90189839A83AB83BC8389819A81AB8107
:10282000BC810097A105B10519F71F8237C08A89BD
:102830009B89AC89BD892AE030E040E050E0BC01D2
:10284000CD010E944E16DC01CB018E838A899B89C3
:10285000AC89BD892AE030E040E050E0BC01CD0108
:102860000E944E16DA01C9018A8B9B8BAC8BBD8B03
:102870008D81282F30E08F81882F90E08095909572
:10288000280F391F8E81482F405DCE010896FC012C
:10289000E20FF31F40838F818F5F8F839F818D8134
:1028A000981728F28D81282F30E0CE010896FC0180
:1028B000E20FF31F1082CE0108960E94C4136596A2
:1028C0000FB6F894DEBF0FBECDBFCF91DF91089554
:1028D000DF93CF9300D000D0CDB7DEB789836A8372
:1028E0008981282F30E03C832B838B819C81813030
:1028F000910531F02B813C812230310531F009C046
:102900008A8180580E94F01104C08A8180540E94FC
:10291000F0110F900F900F900F90CF91DF910895CD
:10292000DF93CF9300D000D0CDB7DEB78A837C830E
:102930006B838A818830F8F48A81882F90E008962A
:10294000880F991F880F991F880F991F0E94F011F7
:1029500019820EC08981282F30E08B819C81FC0177
:10296000E20FF31F80810E94DA1289818F5F8983D1
:102970008981883078F30F900F900F900F90CF914E
:10298000DF910895DF93CF930F92CDB7DEB78983A0
:1029900089810E94DA120F90CF91DF910895DF9321
:1029A000CF930F92CDB7DEB719821BC08981882FD4
:1029B00090E0FC01EE57FF4F908182E0692F41E0EB
:1029C0000E94F4098981882F90E0FC01EA57FF4FAB
:1029D000908182E0692F42E00E94F40989818F5F33
:1029E00089838981843010F30F90CF91DF9108950E
:1029F000DF93CF93CDB7DEB761970FB6F894DEBF04
:102A00000FBECDBF1F86198AC4C08989882F90E068
:102A1000FC01EE57FF4F908182E0692F40E00E9459
:102A2000BA0B188AA3C08889882F90E0FC01EA5766
:102A3000FF4F908182E0692F0E943F0D882309F0AB
:102A400092C080E090E0A8ECB1E48B879C87AD87D2
:102A5000BE876B857C858D859E8520E030E04AEFC2
:102A600054E40E941F02DC01CB018F839887A98761
:102A7000BA876F81788589859A8520E030E040E8C3
:102A80005FE30E94250488232CF481E090E09E837C
:102A90008D833FC06F81788589859A8520E03FEFDF
:102AA0004FE757E40E94C50318164CF56B857C85EB
:102AB0008D859E8520E030E040E251E40E941F02B7
:102AC000DC01CB01BC01CD010E944900DC01CB013E
:102AD0009E838D830FC088EC90E09C838B838B81D9
:102AE0009C810197F1F79C838B838D819E81019757
:102AF0009E838D838D819E81009769F727C06F81AA
:102B0000788589859A850E944900DC01CB019E83E6
:102B10008D838D819E819A83898389819A81019792
:102B2000F1F79A83898312C08989482F50E08889F8
:102B3000282F30E0CA01880F991F880F991F820F34
:102B4000931FFC01EE58FF4F80818F878889882F63
:102B500090E0FC01EA57FF4F908182E0692F0E94CC
:102B60003F0D882309F388898F5F888B888984309B
:102B700008F459CF8989882F90E0FC01EE57FF4F68
:102B8000908182E0692F41E00E94BA0B89898F5FB2
:102B9000898B8989843008F438CF8F8561960FB688
:102BA000F894DEBF0FBECDBFCF91DF910895DF93C4
:102BB000CF9300D0CDB7DEB780E062E040E00E9466
:102BC000F40986E00E944A0E81E06FEF0E94C80D72
:102BD00088E096E10E9441070E944F0688EE0E941D
:102BE000640682E00E947206789481E00E948B065F
:102BF00082E00E94790E9A83898389819A81892F44
:102C000099278695869590939B0080939A00F0CFA4
:102C1000DF93CF93CDB7DEB7809198009091990064
:102C20008E31910519F52091960030919700809191
:102C30009A0090919B002817390741F481E067E0E2
:102C40000E94BE0C10929700109296008091960000
:102C50009091970001969093970080939600109220
:102C600099001092980088EE0E9464068091980066
:102C70009091990001969093990080939800CF913C
:102C8000DF910895991B79E004C0991F961708F009
:102C9000961B881F7A95C9F780950895A1E21A2E90
:102CA000AA1BBB1BFD010DC0AA1FBB1FEE1FFF1FF0
:102CB000A217B307E407F50720F0A21BB30BE40B40
:102CC000F50B661F771F881F991F1A9469F7609587
:102CD0007095809590959B01AC01BD01CF01089541
:102CE0002F923F924F925F926F927F928F929F921C
:102CF000AF92BF92CF92DF92EF92FF920F931F930A
:102D0000CF93DF93CDB7DEB7CA1BDB0B0FB6F894BA
:102D1000DEBF0FBECDBF09942A88398848885F84FA
:102D20006E847D848C849B84AA84B984C884DF806B
:102D3000EE80FD800C811B81AA81B981CE0FD11D4F
:102D40000FB6F894DEBF0FBECDBFED010895F89425
:022D5000FFCFB3
:102D52000000000000000000C0F9A4B0999282F8BF
:102D620080903738392F3435362A3132332D63305B
:0C2D72003D2B00010203040506070100D0
:00000001FF
