:100000000C942A000C9434000C9434000C943400AA
:100010000C9434000C9434000C9434000C94340090
:100020000C9434000C9434000C9434000C94340080
:100030000C9434000C9434000C9434000C94340070
:100040000C9434000C9434000C9434000C94340060
:100050000C94340011241FBECFE5D8E0DEBFCDBF25
:100060000E9443060C94EE060C940000DF93CF939D
:10007000CDB7DEB72A970FB6F894DEBF0FBECDBF5F
:1000800089836A838981282F30E03A872987898587
:100090009A858130910509F46DC029853A85223011
:1000A000310509F4C9C089859A85009709F0E9C02E
:1000B0008A81282F30E038872F838F81988581307F
:1000C000910521F12F813885223031052CF48F8163
:1000D0009885009761F046C02F8138852230310520
:1000E00021F18F8198858330910571F13BC0A5E5A1
:1000F000B0E0E5E5F0E080818E7F8C93A5E5B0E08F
:10010000E5E5F0E0808182608C932CC0A5E5B0E04D
:10011000E5E5F0E0808181608C93A5E5B0E0E5E560
:10012000F0E0808182608C931DC0A5E5B0E0E5E53C
:10013000F0E0808181608C93A5E5B0E0E5E5F0E03A
:1001400080818D7F8C930EC0A5E5B0E0E5E5F0E001
:1001500080818E7F8C93A5E5B0E0E5E5F0E08081BD
:100160008D7F8C93ABE5B0E0EBE5F0E080818064BF
:100170008C9387C08A81282F30E03E832D838D8128
:100180009E818130910521F12D813E812230310502
:100190002CF48D819E81009761F046C02D813E81B7
:1001A0002230310521F18D819E818330910571F1DD
:1001B0003BC0A5E5B0E0E5E5F0E080818B7F8C9366
:1001C000A5E5B0E0E5E5F0E0808188608C932CC087
:1001D000A5E5B0E0E5E5F0E0808184608C93A5E5DD
:1001E000B0E0E5E5F0E0808188608C931DC0A5E576
:1001F000B0E0E5E5F0E0808184608C93A5E5B0E0B7
:10020000E5E5F0E08081877F8C930EC0A5E5B0E046
:10021000E5E5F0E080818B7F8C93A5E5B0E0E5E536
:10022000F0E08081877F8C93ABE5B0E0EBE5F0E018
:10023000808180688C9325C08A81282F30E03C83A0
:100240002B838B819C81009731F02B813C81213065
:10025000310549F00FC0A4E5B0E0E4E5F0E08081AD
:100260008F7B8C9307C0A4E5B0E0E4E5F0E08081EB
:1002700080648C93ABE5B0E0EBE5F0E080818062D8
:100280008C932A960FB6F894DEBF0FBECDBFCF91E8
:10029000DF910895DF93CF9300D00F92CDB7DEB7F3
:1002A00089838981282F30E03B832A838A819B813F
:1002B0008130910589F02A813B8122303105A1F0FE
:1002C0008A819B810097B9F4ABE5B0E0EBE5F0E003
:1002D00080818F7B8C930FC0ABE5B0E0EBE5F0E065
:1002E00080818F778C9307C0ABE5B0E0EBE5F0E061
:1002F00080818F7D8C930F900F900F90CF91DF9125
:100300000895DF93CF93CDB7DEB729970FB6F89452
:10031000DEBF0FBECDBF89836A834B838A8188305D
:1003200008F0ACC18B81813009F06FC08981282F22
:1003300030E039872887888599858130910549F192
:1003400028853985223031052CF4888599850097D8
:1003500061F094C1288539852230310571F1888595
:10036000998583309105E9F189C1AAE3B0E0EAE318
:10037000F0E08081482F8A81282F30E081E090E0F2
:10038000022E02C0880F991F0A94E2F7842B8C93E7
:1003900075C1A7E3B0E0E7E3F0E08081482F8A81F0
:1003A000282F30E081E090E0022E02C0880F991FD4
:1003B0000A94E2F7842B8C9361C1A4E3B0E0E4E3F8
:1003C000F0E08081482F8A81282F30E081E090E0A2
:1003D000022E02C0880F991F0A94E2F7842B8C9397
:1003E0004DC1A1E3B0E0E1E3F0E08081482F8A81D4
:1003F000282F30E081E090E0022E02C0880F991F84
:100400000A94E2F7842B8C9339C18B81882309F0FD
:1004100074C08981282F30E03F832E838E819F8195
:100420008130910559F12E813F81223031052CF424
:100430008E819F81009769F021C12E813F812230FA
:10044000310589F18E819F818330910509F440C087
:1004500015C1AAE3B0E0EAE3F0E08081482F8A8189
:10046000282F30E081E090E0022E02C0880F991F13
:100470000A94E2F7809584238C9300C1A7E3B0E04F
:10048000E7E3F0E08081482F8A81282F30E081E087
:1004900090E0022E02C0880F991F0A94E2F780951F
:1004A00084238C93EBC0A4E3B0E0E4E3F0E080812C
:1004B000482F8A81282F30E081E090E0022E02C090
:1004C000880F991F0A94E2F7809584238C93D6C0F5
:1004D000A1E3B0E0E1E3F0E08081482F8A81282F9A
:1004E00030E081E090E0022E02C0880F991F0A944C
:1004F000E2F7809584238C93C1C08B81823009F010
:10050000BDC08981282F30E03D832C838C819D8163
:100510008130910509F43EC02C813D8122303105A6
:100520002CF48C819D81009771F0A8C02C813D81B5
:100530002230310509F455C08C819D8183309105AD
:1005400009F476C09BC0AAE3B0E0EAE3F0E0808162
:10055000482F8A81282F30E081E090E002C0880F88
:10056000991F2A95E2F7809584238C93ABE3B0E042
:10057000EBE3F0E08081482F8A81282F30E081E092
:1005800090E0022E02C0880F991F0A94E2F7842B94
:100590008C9374C0A7E3B0E0E7E3F0E08081482FDC
:1005A0008A81282F30E081E090E002C0880F991FF7
:1005B0002A95E2F7809584238C93A8E3B0E0E8E3E2
:1005C000F0E08081482F8A81282F30E081E090E0A0
:1005D000022E02C0880F991F0A94E2F7842B8C9395
:1005E0004DC0A4E3B0E0E4E3F0E08081482F8A81CD
:1005F000282F30E081E090E002C0880F991F2A95F3
:10060000E2F7809584238C93A5E3B0E0E5E3F0E086
:100610008081482F8A81282F30E081E090E0022EEF
:1006200002C0880F991F0A94E2F7842B8C9326C08E
:10063000A1E3B0E0E1E3F0E08081482F8A81282F38
:1006400030E081E090E002C0880F991F2A95E2F720
:10065000809584238C93A2E3B0E0E2E3F0E0808114
:10066000482F8A81282F30E081E090E0022E02C0DE
:10067000880F991F0A94E2F7842B8C9329960FB662
:10068000F894DEBF0FBECDBFCF91DF910895DF9309
:10069000CF93CDB7DEB727970FB6F894DEBF0FBE66
:1006A000CDBF89836A834B838A81883008F0EAC092
:1006B0008B81813009F06FC08981282F30E03F8322
:1006C0002E838E819F818130910549F12E813F815A
:1006D000223031052CF48E819F81009761F0D2C0C9
:1006E0002E813F812230310571F18E819F818330CF
:1006F0009105E9F1C7C0ABE3B0E0EBE3F0E0808146
:10070000482F8A81282F30E081E090E0022E02C03D
:10071000880F991F0A94E2F7842B8C93B3C0A8E347
:10072000B0E0E8E3F0E08081482F8A81282F30E0B4
:1007300081E090E0022E02C0880F991F0A94E2F730
:10074000842B8C939FC0A5E3B0E0E5E3F0E08081CB
:10075000482F8A81282F30E081E090E0022E02C0ED
:10076000880F991F0A94E2F7842B8C938BC0A2E325
:10077000B0E0E2E3F0E08081482F8A81282F30E06A
:1007800081E090E0022E02C0880F991F0A94E2F7E0
:10079000842B8C9377C08B81882309F073C0898167
:1007A000282F30E03D832C838C819D818130910501
:1007B00059F12C813D81223031052CF48C819D81B1
:1007C000009769F05FC02C813D812230310589F1AD
:1007D0008C819D818330910509F440C053C0ABE307
:1007E000B0E0EBE3F0E08081482F8A81282F30E0F1
:1007F00081E090E0022E02C0880F991F0A94E2F770
:10080000809584238C933EC0A8E3B0E0E8E3F0E059
:100810008081482F8A81282F30E081E090E0022EED
:1008200002C0880F991F0A94E2F7809584238C9365
:1008300029C0A5E3B0E0E5E3F0E08081482F8A819C
:10084000282F30E081E090E0022E02C0880F991F2F
:100850000A94E2F7809584238C9314C0A2E3B0E05D
:10086000E2E3F0E08081482F8A81282F30E081E0A8
:1008700090E0022E02C0880F991F0A94E2F780953B
:1008800084238C9327960FB6F894DEBF0FBECDBF9E
:10089000CF91DF910895DF93CF9300D000D0CDB7F3
:1008A000DEB789836A838A81883008F06EC08981C7
:1008B000282F30E03C832B838B819C8181309105F4
:1008C00049F12B813C81223031052CF48B819C81B4
:1008D000009761F05AC02B813C812230310571F1C3
:1008E0008B819C8183309105E9F14FC0ABE3B0E08F
:1008F000EBE3F0E08081482F8A81282F30E081E00F
:1009000090E0022E02C0880F991F0A94E2F7842714
:100910008C933BC0A8E3B0E0E8E3F0E08081482F8F
:100920008A81282F30E081E090E0022E02C0880FFB
:10093000991F0A94E2F784278C9327C0A5E3B0E0BF
:10094000E5E3F0E08081482F8A81282F30E081E0C4
:1009500090E0022E02C0880F991F0A94E2F78427C4
:100960008C9313C0A2E3B0E0E2E3F0E08081482F73
:100970008A81282F30E081E090E0022E02C0880FAB
:10098000991F0A94E2F784278C930F900F900F9091
:100990000F90CF91DF910895DF93CF9300D000D0D7
:1009A00000D0CDB7DEB789836A838A81883008F0AA
:1009B0006FC08981282F30E03D832C834C815D817D
:1009C0004130510549F18C819D818230910534F48B
:1009D0002C813D812115310561F057C04C815D812D
:1009E0004230510561F18C819D8183309105D1F1B7
:1009F0004CC0E9E3F0E08081282F30E08A81882F25
:100A000090E0A90102C0559547958A95E2F7CA0181
:100A1000582F51705B833DC0E6E3F0E08081282FC2
:100A200030E08A81882F90E0A90102C05595479552
:100A30008A95E2F7CA01582F51705B832AC0E3E31D
:100A4000F0E08081282F30E08A81882F90E0A90192
:100A500002C0559547958A95E2F7CA01582F517003
:100A60005B8317C0E0E3F0E08081282F30E08A81CB
:100A7000882F90E0A90102C0559547958A95E2F725
:100A8000CA01582F51705B8304C08FEF8B8301C064
:100A900002C09B819E838E8126960FB6F894DEBF9E
:100AA0000FBECDBFCF91DF910895DF93CF9300D0DC
:100AB00000D0CDB7DEB789836A838981282F30E0E3
:100AC0003C832B838B819C8181309105D1F02B81DC
:100AD0003C81223031052CF48B819C81009761F0A0
:100AE0001EC02B813C812230310581F08B819C819D
:100AF0008330910581F013C0EAE3F0E08A818083BE
:100B00000EC0E7E3F0E08A81808309C0E4E3F0E00F
:100B10008A81808304C0E1E3F0E08A8180830F90C2
:100B20000F900F900F90CF91DF910895DF93CF93A7
:100B300000D000D0CDB7DEB789836A838981282FA2
:100B400030E03C832B838B819C8181309105D1F0F7
:100B50002B813C81223031052CF48B819C810097C4
:100B600061F01EC02B813C812230310581F08B81E8
:100B70009C818330910581F013C0EBE3F0E08A8122
:100B800080830EC0E8E3F0E08A81808309C0E5E35A
:100B9000F0E08A81808304C0E2E3F0E08A81808310
:100BA0000F900F900F900F90CF91DF910895DF93EA
:100BB000CF930F92CDB7DEB78983A6E2B0E0E6E22D
:100BC000F0E0808180688C93A6E2B0E0E6E2F0E09D
:100BD00090818981886F89238C93A7E2B0E0E7E256
:100BE000F0E0808180648C93A7E2B0E0E7E2F0E07F
:100BF00080818F778C93A7E2B0E0E7E2F0E080811C
:100C00008F7D8C930F90CF91DF910895DF93CF93D9
:100C100000D0CDB7DEB78983A7E2B0E0E7E2F0E02D
:100C20008081807E8C93A7E2B0E0E7E2F0E09081E3
:100C30008981892B8C93A6E2B0E0E6E2F0E0808126
:100C400080648C93E6E2F0E08081A6E2B0E0E6E228
:100C5000F0E080818F7E8C93E4E2F0E080819181EE
:100C60000F900F90CF91DF910895DF93CF93CDB781
:100C7000DEB7A6E2B0E0E6E2F0E080818F778C9309
:100C8000CF91DF910895DF93CF9300D000D0CDB7FF
:100C9000DEB781E064E041E00E94810181E065E02F
:100CA00041E00E94810181E066E041E00E94810113
:100CB00080E060E040E00E94810186E00E94D7056C
:100CC00080E00E9406069C838B838B819C81CC01F3
:100CD000A0E0B0E028E833E140E050E0BC01CD0105
:100CE0000E94CF06DC01CB01072E7AE0B695A795CE
:100CF000979587957A95D1F7702D9A838983898105
:100D00009A8125E08D3D920780F481E064E041E026
:100D10000E94470381E065E040E00E94470381E0D4
:100D200066E040E00E944703CBCF89819A8125E0AD
:100D30008D3D9207B0F089819A812BE0893B920723
:100D400080F481E064E040E00E94470381E065E0D8
:100D500041E00E94470381E066E040E00E944703D3
:100D6000AFCF89819A812BE0893B920708F4A8CF05
:100D700089819A8123E18938920708F0A1CF81E027
:100D800064E040E00E94470381E065E040E00E94AB
:100D9000470381E066E041E00E94470391CF629FF4
:100DA000D001739FF001829FE00DF11D649FE00D63
:100DB000F11D929FF00D839FF00D749FF00D659FC4
:100DC000F00D9927729FB00DE11DF91F639FB00DC3
:100DD000E11DF91FBD01CF0111240895F894FFCF43
:00000001FF
